{
	"contracts/4_StateVaribles.sol": {
		"StateVaribles": {
			"abi": [
				{
					"inputs": [],
					"name": "b",
					"outputs": [
						{
							"internalType": "bool",
							"name": "",
							"type": "bool"
						}
					],
					"stateMutability": "view",
					"type": "function"
				},
				{
					"inputs": [],
					"name": "foo",
					"outputs": [
						{
							"internalType": "int256",
							"name": "",
							"type": "int256"
						}
					],
					"stateMutability": "nonpayable",
					"type": "function"
				},
				{
					"inputs": [],
					"name": "i",
					"outputs": [
						{
							"internalType": "uint256",
							"name": "",
							"type": "uint256"
						}
					],
					"stateMutability": "view",
					"type": "function"
				},
				{
					"inputs": [],
					"name": "myUint",
					"outputs": [
						{
							"internalType": "uint256",
							"name": "",
							"type": "uint256"
						}
					],
					"stateMutability": "view",
					"type": "function"
				}
			],
			"devdoc": {
				"kind": "dev",
				"methods": {},
				"version": 1
			},
			"evm": {
				"assembly": "    /* \"contracts/4_StateVaribles.sol\":61:375  contract StateVaribles{... */\n  mstore(0x40, 0x80)\n    /* \"contracts/4_StateVaribles.sol\":111:114  123 */\n  0x7b\n    /* \"contracts/4_StateVaribles.sol\":90:114  uint public myUint = 123 */\n  0x00\n  sstore\n    /* \"contracts/4_StateVaribles.sol\":61:375  contract StateVaribles{... */\n  callvalue\n  dup1\n  iszero\n  tag_1\n  jumpi\n  0x00\n  dup1\n  revert\ntag_1:\n  pop\n  dataSize(sub_0)\n  dup1\n  dataOffset(sub_0)\n  0x00\n  codecopy\n  0x00\n  return\nstop\n\nsub_0: assembly {\n        /* \"contracts/4_StateVaribles.sol\":61:375  contract StateVaribles{... */\n      mstore(0x40, 0x80)\n      callvalue\n      dup1\n      iszero\n      tag_1\n      jumpi\n      0x00\n      dup1\n      revert\n    tag_1:\n      pop\n      jumpi(tag_2, lt(calldatasize, 0x04))\n      shr(0xe0, calldataload(0x00))\n      dup1\n      0x06540f7e\n      eq\n      tag_3\n      jumpi\n      dup1\n      0x4df7e3d0\n      eq\n      tag_4\n      jumpi\n      dup1\n      0xc2985578\n      eq\n      tag_5\n      jumpi\n      dup1\n      0xe5aa3d58\n      eq\n      tag_6\n      jumpi\n    tag_2:\n      0x00\n      dup1\n      revert\n        /* \"contracts/4_StateVaribles.sol\":90:114  uint public myUint = 123 */\n    tag_3:\n      tag_7\n      tag_8\n      jump\t// in\n    tag_7:\n      mload(0x40)\n      tag_9\n      swap2\n      swap1\n      tag_10\n      jump\t// in\n    tag_9:\n      mload(0x40)\n      dup1\n      swap2\n      sub\n      swap1\n      return\n        /* \"contracts/4_StateVaribles.sol\":141:154  bool public b */\n    tag_4:\n      tag_11\n      tag_12\n      jump\t// in\n    tag_11:\n      mload(0x40)\n      tag_13\n      swap2\n      swap1\n      tag_14\n      jump\t// in\n    tag_13:\n      mload(0x40)\n      dup1\n      swap2\n      sub\n      swap1\n      return\n        /* \"contracts/4_StateVaribles.sol\":163:372  function foo() external  returns(int){... */\n    tag_5:\n      tag_15\n      tag_16\n      jump\t// in\n    tag_15:\n      mload(0x40)\n      tag_17\n      swap2\n      swap1\n      tag_18\n      jump\t// in\n    tag_17:\n      mload(0x40)\n      dup1\n      swap2\n      sub\n      swap1\n      return\n        /* \"contracts/4_StateVaribles.sol\":121:134  uint public i */\n    tag_6:\n      tag_19\n      tag_20\n      jump\t// in\n    tag_19:\n      mload(0x40)\n      tag_21\n      swap2\n      swap1\n      tag_10\n      jump\t// in\n    tag_21:\n      mload(0x40)\n      dup1\n      swap2\n      sub\n      swap1\n      return\n        /* \"contracts/4_StateVaribles.sol\":90:114  uint public myUint = 123 */\n    tag_8:\n      sload(0x00)\n      dup2\n      jump\t// out\n        /* \"contracts/4_StateVaribles.sol\":141:154  bool public b */\n    tag_12:\n      0x02\n      0x00\n      swap1\n      sload\n      swap1\n      0x0100\n      exp\n      swap1\n      div\n      0xff\n      and\n      dup2\n      jump\t// out\n        /* \"contracts/4_StateVaribles.sol\":163:372  function foo() external  returns(int){... */\n    tag_16:\n        /* \"contracts/4_StateVaribles.sol\":196:199  int */\n      0x00\n        /* \"contracts/4_StateVaribles.sol\":211:216  int s */\n      dup1\n        /* \"contracts/4_StateVaribles.sol\":219:222  321 */\n      0x0141\n        /* \"contracts/4_StateVaribles.sol\":211:222  int s = 321 */\n      swap1\n      pop\n        /* \"contracts/4_StateVaribles.sol\":233:239  uint x */\n      0x00\n        /* \"contracts/4_StateVaribles.sol\":242:245  123 */\n      0x7b\n        /* \"contracts/4_StateVaribles.sol\":233:245  uint x = 123 */\n      swap1\n      pop\n        /* \"contracts/4_StateVaribles.sol\":256:262  bool f */\n      0x00\n        /* \"contracts/4_StateVaribles.sol\":286:289  456 */\n      0x01c8\n        /* \"contracts/4_StateVaribles.sol\":281:289  x += 456 */\n      dup3\n      tag_23\n      swap2\n      swap1\n      tag_24\n      jump\t// in\n    tag_23:\n      swap2\n      pop\n        /* \"contracts/4_StateVaribles.sol\":304:307  321 */\n      0x0141\n        /* \"contracts/4_StateVaribles.sol\":300:301  i */\n      0x01\n        /* \"contracts/4_StateVaribles.sol\":300:307  i = 321 */\n      dup2\n      swap1\n      sstore\n      pop\n        /* \"contracts/4_StateVaribles.sol\":322:326  true */\n      0x01\n        /* \"contracts/4_StateVaribles.sol\":318:319  b */\n      0x02\n      0x00\n        /* \"contracts/4_StateVaribles.sol\":318:326  b = true */\n      0x0100\n      exp\n      dup2\n      sload\n      dup2\n      0xff\n      mul\n      not\n      and\n      swap1\n      dup4\n      iszero\n      iszero\n      mul\n      or\n      swap1\n      sstore\n      pop\n        /* \"contracts/4_StateVaribles.sol\":341:345  true */\n      0x01\n        /* \"contracts/4_StateVaribles.sol\":337:345  f = true */\n      swap1\n      pop\n        /* \"contracts/4_StateVaribles.sol\":363:364  s */\n      dup3\n        /* \"contracts/4_StateVaribles.sol\":356:364  return s */\n      swap4\n      pop\n      pop\n      pop\n      pop\n        /* \"contracts/4_StateVaribles.sol\":163:372  function foo() external  returns(int){... */\n      swap1\n      jump\t// out\n        /* \"contracts/4_StateVaribles.sol\":121:134  uint public i */\n    tag_20:\n      sload(0x01)\n      dup2\n      jump\t// out\n        /* \"#utility.yul\":7:84   */\n    tag_25:\n        /* \"#utility.yul\":44:51   */\n      0x00\n        /* \"#utility.yul\":73:78   */\n      dup2\n        /* \"#utility.yul\":62:78   */\n      swap1\n      pop\n        /* \"#utility.yul\":7:84   */\n      swap2\n      swap1\n      pop\n      jump\t// out\n        /* \"#utility.yul\":90:208   */\n    tag_26:\n        /* \"#utility.yul\":177:201   */\n      tag_35\n        /* \"#utility.yul\":195:200   */\n      dup2\n        /* \"#utility.yul\":177:201   */\n      tag_25\n      jump\t// in\n    tag_35:\n        /* \"#utility.yul\":172:175   */\n      dup3\n        /* \"#utility.yul\":165:202   */\n      mstore\n        /* \"#utility.yul\":90:208   */\n      pop\n      pop\n      jump\t// out\n        /* \"#utility.yul\":214:436   */\n    tag_10:\n        /* \"#utility.yul\":307:311   */\n      0x00\n        /* \"#utility.yul\":345:347   */\n      0x20\n        /* \"#utility.yul\":334:343   */\n      dup3\n        /* \"#utility.yul\":330:348   */\n      add\n        /* \"#utility.yul\":322:348   */\n      swap1\n      pop\n        /* \"#utility.yul\":358:429   */\n      tag_37\n        /* \"#utility.yul\":426:427   */\n      0x00\n        /* \"#utility.yul\":415:424   */\n      dup4\n        /* \"#utility.yul\":411:428   */\n      add\n        /* \"#utility.yul\":402:408   */\n      dup5\n        /* \"#utility.yul\":358:429   */\n      tag_26\n      jump\t// in\n    tag_37:\n        /* \"#utility.yul\":214:436   */\n      swap3\n      swap2\n      pop\n      pop\n      jump\t// out\n        /* \"#utility.yul\":442:532   */\n    tag_27:\n        /* \"#utility.yul\":476:483   */\n      0x00\n        /* \"#utility.yul\":519:524   */\n      dup2\n        /* \"#utility.yul\":512:525   */\n      iszero\n        /* \"#utility.yul\":505:526   */\n      iszero\n        /* \"#utility.yul\":494:526   */\n      swap1\n      pop\n        /* \"#utility.yul\":442:532   */\n      swap2\n      swap1\n      pop\n      jump\t// out\n        /* \"#utility.yul\":538:647   */\n    tag_28:\n        /* \"#utility.yul\":619:640   */\n      tag_40\n        /* \"#utility.yul\":634:639   */\n      dup2\n        /* \"#utility.yul\":619:640   */\n      tag_27\n      jump\t// in\n    tag_40:\n        /* \"#utility.yul\":614:617   */\n      dup3\n        /* \"#utility.yul\":607:641   */\n      mstore\n        /* \"#utility.yul\":538:647   */\n      pop\n      pop\n      jump\t// out\n        /* \"#utility.yul\":653:863   */\n    tag_14:\n        /* \"#utility.yul\":740:744   */\n      0x00\n        /* \"#utility.yul\":778:780   */\n      0x20\n        /* \"#utility.yul\":767:776   */\n      dup3\n        /* \"#utility.yul\":763:781   */\n      add\n        /* \"#utility.yul\":755:781   */\n      swap1\n      pop\n        /* \"#utility.yul\":791:856   */\n      tag_42\n        /* \"#utility.yul\":853:854   */\n      0x00\n        /* \"#utility.yul\":842:851   */\n      dup4\n        /* \"#utility.yul\":838:855   */\n      add\n        /* \"#utility.yul\":829:835   */\n      dup5\n        /* \"#utility.yul\":791:856   */\n      tag_28\n      jump\t// in\n    tag_42:\n        /* \"#utility.yul\":653:863   */\n      swap3\n      swap2\n      pop\n      pop\n      jump\t// out\n        /* \"#utility.yul\":869:945   */\n    tag_29:\n        /* \"#utility.yul\":905:912   */\n      0x00\n        /* \"#utility.yul\":934:939   */\n      dup2\n        /* \"#utility.yul\":923:939   */\n      swap1\n      pop\n        /* \"#utility.yul\":869:945   */\n      swap2\n      swap1\n      pop\n      jump\t// out\n        /* \"#utility.yul\":951:1066   */\n    tag_30:\n        /* \"#utility.yul\":1036:1059   */\n      tag_45\n        /* \"#utility.yul\":1053:1058   */\n      dup2\n        /* \"#utility.yul\":1036:1059   */\n      tag_29\n      jump\t// in\n    tag_45:\n        /* \"#utility.yul\":1031:1034   */\n      dup3\n        /* \"#utility.yul\":1024:1060   */\n      mstore\n        /* \"#utility.yul\":951:1066   */\n      pop\n      pop\n      jump\t// out\n        /* \"#utility.yul\":1072:1290   */\n    tag_18:\n        /* \"#utility.yul\":1163:1167   */\n      0x00\n        /* \"#utility.yul\":1201:1203   */\n      0x20\n        /* \"#utility.yul\":1190:1199   */\n      dup3\n        /* \"#utility.yul\":1186:1204   */\n      add\n        /* \"#utility.yul\":1178:1204   */\n      swap1\n      pop\n        /* \"#utility.yul\":1214:1283   */\n      tag_47\n        /* \"#utility.yul\":1280:1281   */\n      0x00\n        /* \"#utility.yul\":1269:1278   */\n      dup4\n        /* \"#utility.yul\":1265:1282   */\n      add\n        /* \"#utility.yul\":1256:1262   */\n      dup5\n        /* \"#utility.yul\":1214:1283   */\n      tag_30\n      jump\t// in\n    tag_47:\n        /* \"#utility.yul\":1072:1290   */\n      swap3\n      swap2\n      pop\n      pop\n      jump\t// out\n        /* \"#utility.yul\":1296:1476   */\n    tag_31:\n        /* \"#utility.yul\":1344:1421   */\n      0x4e487b7100000000000000000000000000000000000000000000000000000000\n        /* \"#utility.yul\":1341:1342   */\n      0x00\n        /* \"#utility.yul\":1334:1422   */\n      mstore\n        /* \"#utility.yul\":1441:1445   */\n      0x11\n        /* \"#utility.yul\":1438:1439   */\n      0x04\n        /* \"#utility.yul\":1431:1446   */\n      mstore\n        /* \"#utility.yul\":1465:1469   */\n      0x24\n        /* \"#utility.yul\":1462:1463   */\n      0x00\n        /* \"#utility.yul\":1455:1470   */\n      revert\n        /* \"#utility.yul\":1482:1673   */\n    tag_24:\n        /* \"#utility.yul\":1522:1525   */\n      0x00\n        /* \"#utility.yul\":1541:1561   */\n      tag_50\n        /* \"#utility.yul\":1559:1560   */\n      dup3\n        /* \"#utility.yul\":1541:1561   */\n      tag_25\n      jump\t// in\n    tag_50:\n        /* \"#utility.yul\":1536:1561   */\n      swap2\n      pop\n        /* \"#utility.yul\":1575:1595   */\n      tag_51\n        /* \"#utility.yul\":1593:1594   */\n      dup4\n        /* \"#utility.yul\":1575:1595   */\n      tag_25\n      jump\t// in\n    tag_51:\n        /* \"#utility.yul\":1570:1595   */\n      swap3\n      pop\n        /* \"#utility.yul\":1618:1619   */\n      dup3\n        /* \"#utility.yul\":1615:1616   */\n      dup3\n        /* \"#utility.yul\":1611:1620   */\n      add\n        /* \"#utility.yul\":1604:1620   */\n      swap1\n      pop\n        /* \"#utility.yul\":1639:1642   */\n      dup1\n        /* \"#utility.yul\":1636:1637   */\n      dup3\n        /* \"#utility.yul\":1633:1643   */\n      gt\n        /* \"#utility.yul\":1630:1666   */\n      iszero\n      tag_52\n      jumpi\n        /* \"#utility.yul\":1646:1664   */\n      tag_53\n      tag_31\n      jump\t// in\n    tag_53:\n        /* \"#utility.yul\":1630:1666   */\n    tag_52:\n        /* \"#utility.yul\":1482:1673   */\n      swap3\n      swap2\n      pop\n      pop\n      jump\t// out\n\n    auxdata: 0xa26469706673582212200576fdcf7b1a584cdf7f93dc608d902a8233a079ea32151d98f5bc0df29cce9864736f6c634300081a0033\n}\n",
				"bytecode": {
					"linkReferences": {},
					"object": "6080604052607b5f553480156012575f80fd5b5061025b806100205f395ff3fe608060405234801561000f575f80fd5b506004361061004a575f3560e01c806306540f7e1461004e5780634df7e3d01461006c578063c29855781461008a578063e5aa3d58146100a8575b5f80fd5b6100566100c6565b6040516100639190610148565b60405180910390f35b6100746100cb565b604051610081919061017b565b60405180910390f35b6100926100dd565b60405161009f91906101ac565b60405180910390f35b6100b061012a565b6040516100bd9190610148565b60405180910390f35b5f5481565b60025f9054906101000a900460ff1681565b5f8061014190505f607b90505f6101c8826100f891906101f2565b9150610141600181905550600160025f6101000a81548160ff0219169083151502179055506001905082935050505090565b60015481565b5f819050919050565b61014281610130565b82525050565b5f60208201905061015b5f830184610139565b92915050565b5f8115159050919050565b61017581610161565b82525050565b5f60208201905061018e5f83018461016c565b92915050565b5f819050919050565b6101a681610194565b82525050565b5f6020820190506101bf5f83018461019d565b92915050565b7f4e487b71000000000000000000000000000000000000000000000000000000005f52601160045260245ffd5b5f6101fc82610130565b915061020783610130565b925082820190508082111561021f5761021e6101c5565b5b9291505056fea26469706673582212200576fdcf7b1a584cdf7f93dc608d902a8233a079ea32151d98f5bc0df29cce9864736f6c634300081a0033",
					"opcodes": "PUSH1 0x80 PUSH1 0x40 MSTORE PUSH1 0x7B PUSH0 SSTORE CALLVALUE DUP1 ISZERO PUSH1 0x12 JUMPI PUSH0 DUP1 REVERT JUMPDEST POP PUSH2 0x25B DUP1 PUSH2 0x20 PUSH0 CODECOPY PUSH0 RETURN INVALID PUSH1 0x80 PUSH1 0x40 MSTORE CALLVALUE DUP1 ISZERO PUSH2 0xF JUMPI PUSH0 DUP1 REVERT JUMPDEST POP PUSH1 0x4 CALLDATASIZE LT PUSH2 0x4A JUMPI PUSH0 CALLDATALOAD PUSH1 0xE0 SHR DUP1 PUSH4 0x6540F7E EQ PUSH2 0x4E JUMPI DUP1 PUSH4 0x4DF7E3D0 EQ PUSH2 0x6C JUMPI DUP1 PUSH4 0xC2985578 EQ PUSH2 0x8A JUMPI DUP1 PUSH4 0xE5AA3D58 EQ PUSH2 0xA8 JUMPI JUMPDEST PUSH0 DUP1 REVERT JUMPDEST PUSH2 0x56 PUSH2 0xC6 JUMP JUMPDEST PUSH1 0x40 MLOAD PUSH2 0x63 SWAP2 SWAP1 PUSH2 0x148 JUMP JUMPDEST PUSH1 0x40 MLOAD DUP1 SWAP2 SUB SWAP1 RETURN JUMPDEST PUSH2 0x74 PUSH2 0xCB JUMP JUMPDEST PUSH1 0x40 MLOAD PUSH2 0x81 SWAP2 SWAP1 PUSH2 0x17B JUMP JUMPDEST PUSH1 0x40 MLOAD DUP1 SWAP2 SUB SWAP1 RETURN JUMPDEST PUSH2 0x92 PUSH2 0xDD JUMP JUMPDEST PUSH1 0x40 MLOAD PUSH2 0x9F SWAP2 SWAP1 PUSH2 0x1AC JUMP JUMPDEST PUSH1 0x40 MLOAD DUP1 SWAP2 SUB SWAP1 RETURN JUMPDEST PUSH2 0xB0 PUSH2 0x12A JUMP JUMPDEST PUSH1 0x40 MLOAD PUSH2 0xBD SWAP2 SWAP1 PUSH2 0x148 JUMP JUMPDEST PUSH1 0x40 MLOAD DUP1 SWAP2 SUB SWAP1 RETURN JUMPDEST PUSH0 SLOAD DUP2 JUMP JUMPDEST PUSH1 0x2 PUSH0 SWAP1 SLOAD SWAP1 PUSH2 0x100 EXP SWAP1 DIV PUSH1 0xFF AND DUP2 JUMP JUMPDEST PUSH0 DUP1 PUSH2 0x141 SWAP1 POP PUSH0 PUSH1 0x7B SWAP1 POP PUSH0 PUSH2 0x1C8 DUP3 PUSH2 0xF8 SWAP2 SWAP1 PUSH2 0x1F2 JUMP JUMPDEST SWAP2 POP PUSH2 0x141 PUSH1 0x1 DUP2 SWAP1 SSTORE POP PUSH1 0x1 PUSH1 0x2 PUSH0 PUSH2 0x100 EXP DUP2 SLOAD DUP2 PUSH1 0xFF MUL NOT AND SWAP1 DUP4 ISZERO ISZERO MUL OR SWAP1 SSTORE POP PUSH1 0x1 SWAP1 POP DUP3 SWAP4 POP POP POP POP SWAP1 JUMP JUMPDEST PUSH1 0x1 SLOAD DUP2 JUMP JUMPDEST PUSH0 DUP2 SWAP1 POP SWAP2 SWAP1 POP JUMP JUMPDEST PUSH2 0x142 DUP2 PUSH2 0x130 JUMP JUMPDEST DUP3 MSTORE POP POP JUMP JUMPDEST PUSH0 PUSH1 0x20 DUP3 ADD SWAP1 POP PUSH2 0x15B PUSH0 DUP4 ADD DUP5 PUSH2 0x139 JUMP JUMPDEST SWAP3 SWAP2 POP POP JUMP JUMPDEST PUSH0 DUP2 ISZERO ISZERO SWAP1 POP SWAP2 SWAP1 POP JUMP JUMPDEST PUSH2 0x175 DUP2 PUSH2 0x161 JUMP JUMPDEST DUP3 MSTORE POP POP JUMP JUMPDEST PUSH0 PUSH1 0x20 DUP3 ADD SWAP1 POP PUSH2 0x18E PUSH0 DUP4 ADD DUP5 PUSH2 0x16C JUMP JUMPDEST SWAP3 SWAP2 POP POP JUMP JUMPDEST PUSH0 DUP2 SWAP1 POP SWAP2 SWAP1 POP JUMP JUMPDEST PUSH2 0x1A6 DUP2 PUSH2 0x194 JUMP JUMPDEST DUP3 MSTORE POP POP JUMP JUMPDEST PUSH0 PUSH1 0x20 DUP3 ADD SWAP1 POP PUSH2 0x1BF PUSH0 DUP4 ADD DUP5 PUSH2 0x19D JUMP JUMPDEST SWAP3 SWAP2 POP POP JUMP JUMPDEST PUSH32 0x4E487B7100000000000000000000000000000000000000000000000000000000 PUSH0 MSTORE PUSH1 0x11 PUSH1 0x4 MSTORE PUSH1 0x24 PUSH0 REVERT JUMPDEST PUSH0 PUSH2 0x1FC DUP3 PUSH2 0x130 JUMP JUMPDEST SWAP2 POP PUSH2 0x207 DUP4 PUSH2 0x130 JUMP JUMPDEST SWAP3 POP DUP3 DUP3 ADD SWAP1 POP DUP1 DUP3 GT ISZERO PUSH2 0x21F JUMPI PUSH2 0x21E PUSH2 0x1C5 JUMP JUMPDEST JUMPDEST SWAP3 SWAP2 POP POP JUMP INVALID LOG2 PUSH5 0x6970667358 0x22 SLT KECCAK256 SDIV PUSH23 0xFDCF7B1A584CDF7F93DC608D902A8233A079EA32151D98 CREATE2 0xBC 0xD CALLCODE SWAP13 0xCE SWAP9 PUSH5 0x736F6C6343 STOP ADDMOD BYTE STOP CALLER "
				},
				"gasEstimates": {
					"creation": {
						"codeDepositCost": "120600",
						"executionCost": "22268",
						"totalCost": "142868"
					},
					"external": {
						"b()": "2466",
						"foo()": "infinite",
						"i()": "2469",
						"myUint()": "2402"
					}
				},
				"methodIdentifiers": {
					"b()": "4df7e3d0",
					"foo()": "c2985578",
					"i()": "e5aa3d58",
					"myUint()": "06540f7e"
				}
			},
			"storageLayout": {
				"storage": [
					{
						"astId": 4,
						"contract": "contracts/4_StateVaribles.sol:StateVaribles",
						"label": "myUint",
						"offset": 0,
						"slot": "0",
						"type": "t_uint256"
					},
					{
						"astId": 6,
						"contract": "contracts/4_StateVaribles.sol:StateVaribles",
						"label": "i",
						"offset": 0,
						"slot": "1",
						"type": "t_uint256"
					},
					{
						"astId": 8,
						"contract": "contracts/4_StateVaribles.sol:StateVaribles",
						"label": "b",
						"offset": 0,
						"slot": "2",
						"type": "t_bool"
					}
				],
				"types": {
					"t_bool": {
						"encoding": "inplace",
						"label": "bool",
						"numberOfBytes": "1"
					},
					"t_uint256": {
						"encoding": "inplace",
						"label": "uint256",
						"numberOfBytes": "32"
					}
				}
			},
			"userdoc": {
				"kind": "user",
				"methods": {},
				"version": 1
			}
		}
	}
}